:020000040800F2
:1000000000000220991000085D0E0008630E000831
:10001000690E00086F0E0008750E00080000000051
:100020000000000000000000000000007B0E00083F
:10003000890E000800000000970E0008A50E0008B9
:10004000E9100008E9100008E9100008E9100008AC
:10005000E9100008E9100008E9100008E91000089C
:10006000E9100008E9100008E9100008E91000088C
:10007000E9100008E9100008E9100008E91000087C
:10008000E9100008E9100008E9100008E91000086C
:10009000B10E0008E9100008E9100008E910000896
:1000A000E9100008E9100008E9100008E91000084C
:1000B000E9100008E9100008E9100008E91000083C
:1000C000E9100008E9100008E9100008E91000082C
:1000D000E9100008E9100008E9100008E91000081C
:1000E000C50E0008E9100008E9100008E910000832
:1000F000E9100008E9100008E9100008E9100008FC
:10010000E9100008E9100008E9100008E9100008EB
:10011000E9100008E9100008E9100008E9100008DB
:10012000E9100008E9100008E9100008E9100008CB
:10013000E91000080000000000000000E9100008BD
:10014000D50E0008E9100008E9100008E9100008C1
:10015000E9100008E9100008E9100008E91000089B
:10016000E9100008E9100008E9100008E91000088B
:10017000E9100008E910000800000000000000007D
:08018000E9100008E910000875
:1001900010B5054C237833B9044B13B10448AFF3C1
:1001A00000800123237010BD7400002000000000B7
:1001B000B83D000808B5034B1BB103490348AFF332
:1001C000008008BD0000000078000020B83D000855
:1001D00001F0FF01102A2BDB10F0070F08D010F8F8
:1001E000013B013A8B422DD010F0070F42B3F6D1FC
:1001F000F0B441EA012141EA014122F007047FF015
:1002000000070023F0E80256083C85EA010586EA6B
:10021000010685FA47F5A3FA87F586FA47F6A5FAA7
:1002200087F68EB9EED1F0BC01F0FF0102F00702B3
:1002300032B110F8013B013A83EA010313B1F8D15E
:100240000020704701387047002D06BF354603383F
:10025000073815F0010F07D1013015F4807F02BF78
:10026000013015F4C03F0130F0BC0138704700BFC9
:1002700053B94AB9002908BF00281CBF4FF0FF310D
:100280004FF0FF3000F06EB9ADF1080C6DE904CE0F
:1002900000F006F8DDF804E0DDE9022304B0704761
:1002A0002DE9F047089D04468C46002B40F08380E2
:1002B0008A42174647D9B2FA82F242B1C2F120000F
:1002C00024FA00F09140974040EA010C94404FEA34
:1002D0001748230CBCFBF8F61FFA87FE08FB16C173
:1002E00043EA014306FB0EF1994209D9FB1806F1D6
:1002F000FF3080F01981994240F21681023E3B4462
:100300005B1AA4B2B3FBF8F008FB103344EA0344D1
:1003100000FB0EFEA64509D93C1900F1FF3380F021
:100320000581A64540F2028102383C4440EA06407D
:10033000A4EB0E0400261DB1D4400023C5E9004300
:100340003146BDE8F08702B9FFDEB2FA82F2002A38
:1003500050D1CB1B4FEA174E1FFA87F80126B3FB8B
:10036000FEFC210C0EFB1C3341EA034108FB0CF39D
:100370008B4207D979180CF1FF3002D28B4200F280
:10038000E9808446C91AA3B2B1FBFEF00EFB10113E
:1003900043EA014408FB00F8A04507D93C1900F1E5
:1003A000FF3302D2A04500F2D9801846A4EB08041E
:1003B00040EA0C40BFE78B4209D9002D00F0B18024
:1003C0000026C5E9000130463146BDE8F087B3FAA2
:1003D00083F6002E4AD18B4202D3824200F2B880CB
:1003E000841A61EB030101208C46002DA8D0C5E9D9
:1003F000004CA5E7C2F1200320FA03F6974001FA6A
:1004000002F04FEA174ED9403043030CB1FBFEF621
:100410001FFA87F80EFB161143EA014306FB08F1A9
:10042000994204FA02F409D9FB1806F1FF3C80F066
:100430008D80994240F28A80023E3B445B1A81B231
:10044000B3FBFEF00EFB103341EA034100FB08F35F
:100450008B4207D9791800F1FF3C73D28B4271D9D6
:1004600002383944CB1A40EA064678E7C6F1200C38
:1004700003FA06F422FA0CF31C4320FA0CF701FAF3
:1004800006F34FEA144E21FA0CF11F433B0CB1FB6B
:10049000FEF91FFA84F80EFB191143EA014109FB2A
:1004A00008FA8A4502FA06F200FA06F308D961183A
:1004B00009F1FF3048D28A4546D9A9F10209214401
:1004C000A1EB0A01BFB2B1FBFEF00EFB101147EA2F
:1004D000014700FB08F8B84507D9E71900F1FF31DB
:1004E0002ED2B8452CD90238274440EA0940A7EB60
:1004F0000807A0FB02894F45C64649461AD317D0C4
:100500005DB1B3EB0E0267EB010707FA0CFCF2409A
:100510004CEA0202F740C5E9002700263146BDE853
:10052000F0872E4628460BE70646E9E61846FDE624
:100530004345E5D2B8EB020E69EB04010138DFE771
:100540000846D2E760468DE78146B9E7664675E71B
:1005500030464AE7ACF1020C394413E702383C4418
:1005600024E700BF704700BF80B483B000AF174BD3
:1005700008221A61154B4FF011325A60134B0422B6
:100580009A60124B0022DA60104B2E221A600F4B39
:1005900000221A750E4B27221A700D4B01225A7039
:1005A00002237B6007E00A4A7B68134455221A70D5
:1005B0007B6801337B607B68072BF4DD00BF00BFE5
:1005C0000C37BD465DF8047B704700BF0801002072
:1005D000CC00002080B400AF104B08221A610F4BF2
:1005E0004FF011325A600D4B04229A600B4B0022DF
:1005F000DA600A4B4FF482721A60084B00221A75B7
:10060000074B06221A70064B67225A70044B0122D0
:100610009A7000BFBD465DF8047B7047080100205A
:10062000CC00002080B582B000AF03237B600FE0D8
:100630001F4A7B6813441A787B68033B1D49CB5CD7
:100640009A4202D01C4B02221A607B6801337B6005
:100650007B68062BECDD184B1B68022B24D0164B55
:1006600000221A60154B02221A70144B67225A702E
:10067000124B02229A7003233B6007E00F4A3B684B
:10068000134455221A703B6801333B603B68072BCB
:10069000F4DD012201210A4801F0CEFE094B074A90
:1006A00009490A4800F0D8FF00BF0837BD4680BDA1
:1006B000D80000202001002000000020CC000020F5
:1006C00000040240D400002008010020A400002003
:1006D00080B483B000AF03237B600DE00B4A7B68DE
:1006E00013441B780133D9B2094A7B6813440A4684
:1006F0001A707B6801337B607B68062BEEDD00BFE0
:1007000000BF0C37BD465DF8047B7047D800002061
:10071000CC00002080B582B000AF03237B6021E0D5
:1007200002F048FB0246144B83FB02131344D91119
:10073000D317C91A0B461B025B1AD11AC9B20F4A4A
:100740007B6813440A461A700C4A7B6813441B7872
:100750000133D9B20A4A7B6813440A461A707B688F
:1007600001337B607B68062BDADD044B5522DA719E
:1007700000BF0837BD4680BD81808080CC0000204E
:100780002001002080B582B000AF0346FB80FB88CB
:10079000B3F5005F14D1012201210B4801F04CFE9A
:1007A000FFF7E2FE094B0A4A0A490B4800F054FFE2
:1007B0000346002B04D001220221034801F03CFE35
:1007C00000BF0837BD4680BD00040240D4000020B1
:1007D000CC00002008010020E000002080B500AF20
:1007E000FFF7F8FE0B4B1B78272B11D1094B5B78D9
:1007F000012B07D1FFF78EFF074B084A084909482C
:1008000000F02AFF034B5B78022B01D1FFF70AFFB0
:1008100000BF80BDD8000020D4000020CC00002004
:1008200008010020A400002080B500AFFFF79CFE67
:100830000A4B5B78672B0ED1084B9B78012B0AD1B2
:10084000074B02229A70FFF743FF064B044A064902
:10085000064800F001FF00BF80BD00BFD8000020A7
:10086000CC000020D400002008010020E00000207F
:1008700080B582B000AF786001220421134801F0F6
:10088000DBFD134B134A0021134800F0C0FF034661
:10089000002B06D1002201210C4801F0CDFDFFF70D
:1008A0009DFF0B4B0B4A00210C4800F0B0FF0346A4
:1008B000002B06D100220121044801F0BDFDFFF705
:1008C000B3FF00BF0837BD4680BD00BF0004024033
:1008D000D800002024010020A4000020E000002017
:1008E00080B582B000AF00F001FC00F04BF800F0E2
:1008F00055F900F0AFF800F0FFF81D4800F068FE71
:100900001C4800F065FE0221194801F092F80346E8
:10091000002B09D001220121174801F08DFD012291
:100920000221154801F088FD0221124801F081F8EA
:10093000124B1B68012B14D100237B600BE00121BB
:100940000D4801F092FD0E4B1B78184600F040FC5C
:100950007B6801337B600A4B5B781A467B68934265
:10096000EDDBFA2000F034FCFA2000F031FCDFE788
:10097000E0000020A40000200004024090000020BD
:10098000D800002080B594B000AF07F120033022DA
:100990000021184602F006FA07F10C0300221A6043
:1009A0005A609A60DA601A610023BB60274B1B6CA7
:1009B000264A43F080531364244B1B6C03F080538E
:1009C000BB60BB6800237B60214B1B68204A43F45B
:1009D000804313601E4B1B6803F480437B607B687D
:1009E00001233B624FF480337B620223BB634FF4ED
:1009F0008003FB6304233B6432237B640223BB64D8
:100A00000423FB6407F12003184601F061FD03464F
:100A1000002B01D000F044F90F23FB6002233B615F
:100A200000237B614FF48053BB610023FB6107F11E
:100A30000C030121184601F0C3FF0346002B01D02F
:100A400000F02EF900BF5037BD4680BD003802408F
:100A50000070004080B58AB000AF254B254A1A606F
:100A6000234B0A225A60224B00229A60204B00221C
:100A7000DA601F4B4FF480321A611D4B4FF4801225
:100A80005A611B4B00221A76194B00225A76184BDA
:100A900000229A76164B0022DA76154B00221A773E
:100AA000134B00225A77124800F0B6FB0346002B86
:100AB00001D000F0F5F801233B6202237B610023A3
:100AC0003B6100233B6000237B600023BB6000236D
:100AD000FB600023BB610123FB610E237B623B466D
:100AE0001946034800F094FC00BF2837BD4680BD7E
:100AF000E00000200064004080B58AB000AF254BC4
:100B0000254A1A60234B0A225A60224B00229A601F
:100B1000204B0022DA601F4B4FF480321A611D4BCC
:100B20004FF480125A611B4B00221A76194B002297
:100B30005A76184B00229A76164B0022DA76154B1D
:100B400000221A77134B00225A77124800F064FBF8
:100B50000346002B01D000F0A3F801233B620E23D3
:100B60007B6100233B6100233B6000237B6000230B
:100B7000BB600023FB600023BB610123FB610E23EC
:100B80007B623B461946034800F042FC00BF283711
:100B9000BD4680BDA40000200068004080B58AB03A
:100BA00000AF07F1140300221A605A609A60DA60FD
:100BB0001A6100233B61374B1B6B364A43F0040339
:100BC0001363344B1B6B03F004033B613B6900234D
:100BD000FB60304B1B6B2F4A43F0800313632D4B9C
:100BE0001B6B03F08003FB60FB680023BB60294B99
:100BF0001B6B284A43F002031363264B1B6B03F065
:100C00000203BB60BB6800237B60224B1B6B214A45
:100C100043F0010313631F4B1B6B03F001037B6065
:100C20007B68002207211C4801F006FC4FF40053AA
:100C30007B614FF48813BB610023FB6107F1140350
:100C40001946164801F05CFA10237B610023BB6152
:100C50000023FB6107F114031946104801F050FA14
:100C600007237B610123BB610023FB6100233B62FF
:100C700007F114031946084801F042FA0022002146
:100C8000282001F006FA282001F01FFA00BF2837BB
:100C9000BD4680BD0038024000040240000802400A
:100CA00080B400AF72B600BFFEE7000080B483B02E
:100CB00000AF00237B60104B5B6C0F4A43F4804312
:100CC00053640D4B5B6C03F480437B607B680023B3
:100CD0003B60094B1B6C084A43F080531364064B7E
:100CE0001B6C03F080533B603B6800BF0C37BD4674
:100CF0005DF8047B704700BF0038024080B58CB0BF
:100D000000AF786007F11C0300221A605A609A60F5
:100D1000DA601A617B681B684A4A93423ED14A4BAB
:100D20001B680133484A1360474B1B68012B0DD1E8
:100D30000023BB61454B1B6C444A43F000731364B2
:100D4000424B1B6C03F00073BB61BB6900237B61EA
:100D50003E4B1B6B3D4A43F0010313633B4B1B6B44
:100D600003F001037B617B694FF4C053FB610223F5
:100D70003B6200237B620323BB620923FB6207F112
:100D80001C031946324801F0BBF90022002114204F
:100D900001F07FF9142001F098F94FE07B681B689F
:100DA0002C4A93424AD100233B61284B1B6C274AB3
:100DB00043F080631364254B1B6C03F080633B613D
:100DC0003B69214B1B6801331F4A13601E4B1B6894
:100DD000012B0DD10023FB601C4B1B6C1B4A43F005
:100DE00000731364194B1B6C03F00073FB60FB680A
:100DF0000023BB60154B1B6B144A43F002031363C3
:100E0000124B1B6B03F00203BB60BB686023FB61EA
:100E100002233B6200237B620323BB620923FB6244
:100E200007F11C0319460C4801F06AF90022002161
:100E3000402001F02EF9402001F047F900BF303783
:100E4000BD4680BD00640040940000200038024090
:100E500000000240006800400004024080B400AF7F
:100E6000FEE780B400AFFEE780B400AFFEE780B4D9
:100E700000AFFEE780B400AFFEE780B400AF00BF74
:100E8000BD465DF8047B704780B400AF00BFBD462F
:100E90005DF8047B704780B400AF00BFBD465DF8CD
:100EA000047B704780B500AF00F072F900BF80BDD1
:100EB00080B500AF024800F0E2FD00BF80BD00BF7A
:100EC000E000002080B500AF4FF4005001F0E8FAD8
:100ED00000BF80BD80B500AF024800F0D0FD00BF6C
:100EE00080BD00BFA400002080B400AF01231846DD
:100EF000BD465DF8047B704780B582B000AF786076
:100F0000396001F025FF034616221A604FF0FF33C7
:100F100018460837BD4680BD80B582B000AF786006
:100F20004FF0FF317868FFF7E7FFFEE780B586B046
:100F300000AFF860B9607A6000237B610AE0AFF32C
:100F400000800146BB685A1CBA60CAB21A707B693D
:100F500001337B617A697B689A42F0DB7B681846D3
:100F60001837BD4680BD80B586B000AFF860B96067
:100F70007A6000237B6109E0BB685A1CBA601B7869
:100F80001846AFF300807B6901337B617A697B6827
:100F90009A42F1DB7B6818461837BD4680BD80B4A5
:100FA00083B000AF78604FF0FF3318460C37BD4672
:100FB0005DF8047B704780B483B000AF786039601F
:100FC0003B684FF400525A60002318460C37BD4668
:100FD0005DF8047B704780B483B000AF7860012374
:100FE00018460C37BD465DF8047B704780B485B069
:100FF00000AFF860B9607A60002318461437BD4628
:101000005DF8047B7047000080B586B000AF786063
:10101000144A154BD31A7B617B693B61134B1B68E8
:10102000002B02D1114B124A1A60104B1A687B68D0
:1010300013443A699A4207D201F08AFE03460C2211
:101040001A604FF0FF3309E0084B1B68FB60074B49
:101050001A687B681344054A1360FB681846183702
:10106000BD4680BD00000220000400009800002062
:101070005801002080B400AF064BD3F88830054AF1
:1010800043F47003C2F8883000BFBD465DF8047BAE
:10109000704700BF00ED00E0DFF834D00D480E4986
:1010A0000E4A002302E0D458C4500433C4188C42C2
:1010B000F9D30B4A0B4C002301E013600432A24227
:1010C000FBD3FFF7D7FF01F049FEFFF709FC70479C
:1010D0000000022000000020740000203C3F0008B7
:1010E0007400002054010020FEE7000080B500AF2E
:1010F0000E4B1B680D4A43F4007313600B4B1B68C7
:101100000A4A43F480631360084B1B68074A43F4A0
:1011100080731360032000F0B1FF0F2000F008F887
:10112000FFF7C4FD0023184680BD00BF003C02400D
:1011300080B582B000AF7860124B1A68124B1B78F2
:1011400019464FF47A73B3FBF1F3B2FBF3F318468D
:1011500000F0C9FF0346002B01D001230EE07B689D
:101160000F2B0AD8002279684FF0FF3000F091FF72
:10117000064A7B681360002300E001231846083705
:10118000BD4680BD040000200C00002008000020A7
:1011900080B400AF064B1B781A46064B1B681344FD
:1011A000044A136000BFBD465DF8047B704700BF72
:1011B0000C0000204001002080B400AF034B1B68EE
:1011C0001846BD465DF8047B704700BF4001002013
:1011D00080B584B000AF7860FFF7EEFFB8607B6841
:1011E000FB60FB68B3F1FF3F05D00A4B1B781A4642
:1011F000FB681344FB6000BFFFF7DEFF0246BB68DD
:10120000D31AFA689A42F7D800BF00BF1037BD461C
:1012100080BD00BF0C00002080B584B000AF7860B6
:101220007B68002B01D10123EDE07B6893F820302F
:10123000DBB2002B02D17868FFF760FD7B681B688A
:101240001A687B681B6842F001021A60FFF7B4FF5E
:10125000F86012E0FFF7B0FF0246FB68D31A0A2BD2
:101260000BD97B685B6A43F400327B685A627B6807
:10127000052283F820200123C5E07B681B685B689A
:1012800003F00103002BE5D07B681B681A687B68BC
:101290001B6822F002021A60FFF78EFFF86012E06E
:1012A000FFF78AFF0246FB68D31A0A2B0BD97B682B
:1012B0005B6A43F400327B685A627B68052283F8DC
:1012C000202001239FE07B681B685B6803F002031A
:1012D000002BE5D17B681B7E012B08D17B681B6846
:1012E0001A687B681B6842F080021A6007E07B681E
:1012F0001B681A687B681B6822F080021A607B6892
:101300005B7E012B08D17B681B681A687B681B68B1
:1013100042F040021A6007E07B681B681A687B682D
:101320001B6822F040021A607B689B7E012B08D16B
:101330007B681B681A687B681B6842F020021A6091
:1013400007E07B681B681A687B681B6822F0200234
:101350001A607B68DB7E012B08D17B681B681A68EA
:101360007B681B6822F010021A6007E07B681B682C
:101370001A687B681B6842F010021A607B681B7F4A
:10138000012B08D17B681B681A687B681B6842F0D8
:1013900008021A6007E07B681B681A687B681B6894
:1013A00022F008021A607B685B7F012B08D17B6802
:1013B0001B681A687B681B6842F004021A6007E029
:1013C0007B681B681A687B681B6822F004021A603D
:1013D0007B689A687B68DB681A437B681B691A43E1
:1013E0007B685B6942EA03017B685B685A1E7B6825
:1013F0001B680A43DA617B6800225A627B6801221B
:1014000083F82020002318461037BD4680BD000019
:1014100080B487B000AF786039607B681B687B61FF
:101420007B6893F82030FB74FB7C012B03D0FB7CA2
:10143000022B40F0BE80654B7B617B69D3F80032A4
:1014400043F001027B69C3F800227B69D3F80032C4
:1014500023F47C527B69C3F800227B69D3F8002215
:101460003B685B6A1B021A437B69C3F800223B6836
:101470005B6903F01F03012202FA03F3FB607B693F
:10148000D3F81C22FB68DB431A407B69C3F81C229B
:101490003B68DB69002B23D17B69D3F80C22FB6806
:1014A000DB431A407B69C3F80C223B68DB681904F4
:1014B0003B685B689BB23A68526919437B69483262
:1014C00043F832103B689B6819043B681B689AB26A
:1014D0003B685B690A4379694833DB000B445A6017
:1014E0003B68DB69012B22D17B69D3F80C22FB68B6
:1014F0001A437B69C3F80C223B681B6819043B68DC
:101500005B689BB23A68526919437B69483243F879
:1015100032103B689B6819043B68DB689AB23B68F1
:101520005B690A4379694833DB000B445A603B68C6
:101530009B69002B09D17B69D3F80422FB68DB434C
:101540001A407B69C3F8042207E07B69D3F80422C0
:10155000FB681A437B69C3F804223B681B69002BB4
:1015600009D17B69D3F81422FB68DB431A407B69FD
:10157000C3F8142207E07B69D3F81422FB681A43EE
:101580007B69C3F814223B681B6A012B07D17B6976
:10159000D3F81C22FB681A437B69C3F81C227B69C1
:1015A000D3F8003223F001027B69C3F80022002344
:1015B00006E07B685B6A43F480227B685A62012301
:1015C00018461C37BD465DF8047B70470064004038
:1015D00080B584B000AF78607B6893F82030DBB2D0
:1015E000012B2ED17B68022283F820207B681B68A8
:1015F0001A687B681B6822F001021A60FFF7DCFDA5
:10160000F86012E0FFF7D8FD0246FB68D31A0A2BF8
:101610000BD97B685B6A43F400327B685A627B6853
:10162000052283F82020012312E07B681B685B6899
:1016300003F00103002BE5D17B6800225A620023EE
:1016400006E07B685B6A43F400227B685A620123F0
:1016500018461037BD4680BD80B489B000AFF86031
:10166000B9607A603B60FB6893F82030FB77FB68D9
:101670001B689B68BB61FB7F012B03D0FB7F022BA8
:1016800040F0B880BB6903F08063002B0AD1BB69CE
:1016900003F00063002B05D1BB6903F08053002BDE
:1016A00000F0A080BB691B0E03F003037B617B6924
:1016B000022B07D9FB685B6A43F40002FB685A629D
:1016C00001239EE001227B699A403B681A60BB6857
:1016D0009B68002B0DD1BB681B685A05BB68DB6893
:1016E000F96809681A437B6918331B010B441A60B7
:1016F0000FE0BB685B68DA00BB689B681A43BB6895
:10170000DB68F96809681A437B6918331B010B44CD
:101710001A60FB681968BB681A697B6918331B017A
:101720000B4404331A60BB681B7D012B11D1FB688D
:101730001A687B6918331B01134404331B68FA6869
:10174000116843F480727B6918331B010B44043326
:101750001A607B6807331B781A067B6806331B7890
:101760001B041A437B6805331B781B0213437A68FA
:10177000043212781046FA68116843EA00027B6965
:101780001B010B4403F5C6731A607B6803331B7897
:101790001A067B6802331B781B041A437B680133EB
:1017A0001B781B0213437A6812781046FA68116896
:1017B00043EA00027B691B010B4403F5C4731A6002
:1017C000FB681A687B6918331B0113441B68FA68AD
:1017D000116843F001027B6918331B010B441A6046
:1017E00000230EE0FB685B6A43F40012FB685A6258
:1017F000012306E0FB685B6A43F48022FB685A62BF
:10180000012318462437BD465DF8047B704780B439
:1018100087B000AFF860B9607A603B60FB6893F80E
:101820002030FB75FB7D012B03D0FB7D022B40F0AC
:10183000F380BB68002B0ED1FB681B68DB6803F0EC
:101840000303002B16D1FB685B6A43F40012FB68AC
:101850005A620123E7E0FB681B681B6903F003037E
:10186000002B07D1FB685B6A43F40012FB685A62E5
:101870000123D8E0FB681A68BB681B331B011344C3
:101880001B6803F004027B689A607B689B68002BEE
:101890000CD1FB681A68BB681B331B0113441B681F
:1018A0005B0DC3F30A027B681A600BE0FB681A68E1
:1018B000BB681B331B0113441B68DB0823F0604229
:1018C0007B685A60FB681A68BB681B331B011344B2
:1018D0001B6803F002027B68DA60FB681A68BB6869
:1018E0001B331B01134404331B6803F00F027B6896
:1018F0001A61FB681A68BB681B331B01134404336D
:101900001B681B0ADAB27B689A61FB681A68BB68BD
:101910001B331B01134404331B681B0C9AB27B68F6
:101920005A61FB681A68BB681B01134403F5DC733A
:101930001B68DAB23B681A70FB681A68BB681B0147
:10194000134403F5DC731B681A0A3B680133D2B2F7
:101950001A70FB681A68BB681B01134403F5DC733B
:101960001B681A0C3B680233D2B21A70FB681A6803
:10197000BB681B01134403F5DC731B681A0E3B683C
:101980000333D2B21A70FB681A68BB681B01134498
:1019900003F5DE731A683B680433D2B21A70FB6831
:1019A0001A68BB681B01134403F5DE731B681A0A2F
:1019B0003B680533D2B21A70FB681A68BB681B011A
:1019C000134403F5DE731B681A0C3B680633D2B26E
:1019D0001A70FB681A68BB681B01134403F5DE73B9
:1019E0001B681A0E3B680733D2B21A70BB68002B13
:1019F00008D1FB681B68DA68FB681B6842F02002AC
:101A0000DA6007E0FB681B681A69FB681B6842F034
:101A100020021A61002306E0FB685B6A43F480221F
:101A2000FB685A62012318461C37BD465DF8047BEB
:101A3000704780B485B000AF786039607B6893F8F8
:101A40002030FB73FB7B012B02D0FB7B022B09D1E7
:101A50007B681B6859697B681B683A680A435A614E
:101A6000002306E07B685B6A43F480227B685A624D
:101A7000012318461437BD465DF8047B704780B5D6
:101A80008AB000AF786000237B627B681B685B696B
:101A90003B627B681B685B68FB617B681B689B68BB
:101AA000BB617B681B68DB687B617B681B681B69AB
:101AB0003B617B681B689B69FB603B6A03F0010329
:101AC000002B7CD0BB6903F00103002B23D07B6883
:101AD0001B6801229A60BB6903F00203002B03D04C
:101AE000786800F083F916E0BB6903F00403002B6B
:101AF00004D07B6A43F400637B620CE0BB6903F0B3
:101B00000803002B04D07B6A43F480537B6202E01D
:101B1000786800F089F9BB6903F48073002B24D046
:101B20007B681B684FF480729A60BB6903F4007392
:101B3000002B03D0786800F063F916E0BB6903F46A
:101B40008063002B04D07B6A43F400537B620CE07B
:101B5000BB6903F40063002B04D07B6A43F4804329
:101B60007B6202E0786800F069F9BB6903F48033B6
:101B7000002B24D07B681B684FF480329A60BB69CD
:101B800003F40033002B03D0786800F043F916E02B
:101B9000BB6903F48023002B04D07B6A43F4004329
:101BA0007B620CE0BB6903F40023002B04D07B6A4A
:101BB00043F480337B6202E0786800F049F93B6AC5
:101BC00003F00803002B0CD07B6903F01003002BFB
:101BD00007D07B6A43F400737B627B681B6810222A
:101BE000DA603B6A03F00403002B0BD07B6903F03F
:101BF0000803002B06D07B681B680822DA6078682F
:101C000000F030F93B6A03F00203002B09D07B6837
:101C10001B68DB6803F00303002B02D07868FEF733
:101C200027FE3B6A03F04003002B0CD03B6903F016
:101C30001003002B07D07B6A43F480637B627B68D0
:101C40001B6810221A613B6A03F02003002B0BD0A3
:101C50003B6903F00803002B06D07B681B68082251
:101C60001A61786800F012F93B6A03F01003002B48
:101C700009D07B681B681B6903F00303002B02D0AB
:101C8000786800F0F9F83B6A03F40033002B0BD0BE
:101C9000FB6903F01003002B06D07B681B68102241
:101CA0005A60786800F0FCF83B6A03F48033002B3C
:101CB0000BD0FB6903F00803002B06D07B681B6880
:101CC00008225A60786800F0F5F83B6A03F4004394
:101CD000002B7BD0FB6903F00403002B72D03B6A1E
:101CE00003F48073002B08D0FB6803F00103002B82
:101CF00003D07B6A43F001037B623B6A03F4007309
:101D0000002B08D0FB6803F00203002B03D07B6A92
:101D100043F002037B623B6A03F48063002B08D02C
:101D2000FB6803F00403002B03D07B6A43F0040339
:101D30007B623B6A03F40063002B43D0FB6803F033
:101D40007003002B3ED0FB6803F07003602B2BD098
:101D5000602B2ED8502B22D0502B2AD8402B19D0B4
:101D6000402B26D8302B10D0302B22D8102B02D06D
:101D7000202B05D01DE07B6A43F008037B6219E04D
:101D80007B6A43F010037B6214E07B6A43F020031C
:101D90007B620FE07B6A43F040037B620AE07B6A70
:101DA00043F080037B6205E07B6A43F480737B62CF
:101DB00000E000BF7B681B689A697B681B6822F0A3
:101DC00070029A617B681B6804225A607B6A002B50
:101DD00008D07B685A6A7B6A1A437B685A627868C3
:101DE00000F072F800BF2837BD4680BD80B483B0D4
:101DF00000AF786000BF0C37BD465DF8047B7047CC
:101E000080B483B000AF786000BF0C37BD465DF88A
:101E1000047B704780B483B000AF786000BF0C379C
:101E2000BD465DF8047B704780B483B000AF786036
:101E300000BF0C37BD465DF8047B704780B483B0AB
:101E400000AF786000BF0C37BD465DF8047B70477B
:101E500080B483B000AF786000BF0C37BD465DF83A
:101E6000047B704780B483B000AF786000BF0C374C
:101E7000BD465DF8047B704780B483B000AF7860E6
:101E800000BF0C37BD465DF8047B704780B483B05B
:101E900000AF786000BF0C37BD465DF8047B70472B
:101EA00080B483B000AF786000BF0C37BD465DF8EA
:101EB000047B704780B483B000AF786000BF0C37FC
:101EC000BD465DF8047B704780B483B000AF786096
:101ED00000BF0C37BD465DF8047B704780B485B009
:101EE00000AF78607B6803F00703FB600C4BDB6896
:101EF000BB60BA684FF6FF031340BB60FB681A0271
:101F0000BB68134343F0BF6343F40033BB60044A30
:101F1000BB68D36000BF1437BD465DF8047B7047D3
:101F200000ED00E080B400AF044BDB681B0A03F057
:101F300007031846BD465DF8047B704700ED00E0DE
:101F400080B483B000AF0346FB7197F90730002BD4
:101F50000BDBFB7903F01F02074997F907305B0998
:101F6000012000FA02F241F8232000BF0C37BD46E1
:101F70005DF8047B704700BF00E100E080B483B0EF
:101F800000AF03463960FB7197F90730002B0ADB7D
:101F90003B68DAB20C4997F907301201D2B20B4410
:101FA00083F800230AE03B68DAB20849FB7903F0C2
:101FB0000F03043B1201D2B20B441A7600BF0C3758
:101FC000BD465DF8047B704700E100E000ED00E0F5
:101FD00080B489B000AFF860B9607A60FB6803F044
:101FE0000703FB61FB69C3F10703042B28BF04232C
:101FF000BB61FB690433062B02D9FB69033B00E09C
:1020000000237B614FF0FF32BB6902FA03F3DA432E
:10201000BB681A407B699A404FF0FF317B6901FA37
:1020200003F3D9437B680B40134318462437BD465E
:102030005DF8047B7047000080B582B000AF786027
:102040007B68013BB3F1807F01D301230FE00A4A93
:102050007B68013B53600F214FF0FF30FFF78EFF8D
:10206000054B00229A60044B07221A600023184691
:102070000837BD4680BD00BF10E000E080B582B0EB
:1020800000AF78607868FFF729FF00BF0837BD46CA
:1020900080BD80B586B000AF0346B9607A60FB733F
:1020A00000237B61FFF73EFF78617A68B968786941
:1020B000FFF78EFF024697F90F3011461846FFF7DB
:1020C0005DFF00BF1837BD4680BD80B582B000AF50
:1020D0000346FB7197F907301846FFF731FF00BF41
:1020E0000837BD4680BD80B582B000AF78607868A3
:1020F000FFF7A2FF034618460837BD4680BD000023
:1021000080B489B000AF7860396000237B61002320
:102110003B610023BB610023FB616BE10122FB6992
:1021200002FA03F37B613B681B687A6913403B61E9
:102130003A697B699A4240F05A813B685B6803F0D8
:102140000303012B05D03B685B6803F00303022BFC
:1021500030D17B689B68BB61FB695B00032202FA9C
:1021600003F3DB43BA691340BB613B68DA68FB6980
:102170005B0002FA03F3BA691343BB617B68BA6977
:102180009A607B685B68BB610122FB6902FA03F31A
:10219000DB43BA691340BB613B685B681B0903F012
:1021A0000102FB6902FA03F3BA691343BB617B685E
:1021B000BA695A603B685B6803F00303032B17D0CE
:1021C0007B68DB68BB61FB695B00032202FA03F3F7
:1021D000DB43BA691340BB613B689A68FB695B00EB
:1021E00002FA03F3BA691343BB617B68BA69DA6028
:1021F0003B685B6803F00303022B23D1FB69DA0819
:102200007B68083253F82230BB61FB6903F0070397
:102210009B000F2202FA03F3DB43BA691340BB6150
:102220003B681A69FB6903F007039B0002FA03F39A
:10223000BA691343BB61FB69DA087B680832B96984
:1022400043F822107B681B68BB61FB695B000322BB
:1022500002FA03F3DB43BA691340BB613B685B6876
:1022600003F00302FB695B0002FA03F3BA6913434C
:10227000BB617B68BA691A603B685B6803F44033F2
:10228000002B00F0B4800023FB60604B5B6C5F4A66
:1022900043F4804353645D4B5B6C03F48043FB6009
:1022A000FB685B4AFB699B08023352F82330BB6131
:1022B000FB6903F003039B000F2202FA03F3DB43E5
:1022C000BA691340BB617B68524A93422BD07B684A
:1022D000514A934225D07B68504A93421FD07B6875
:1022E0004F4A934219D07B684E4A934213D07B6881
:1022F0004D4A93420DD07B684C4A934207D07B688D
:102300004B4A934201D107230EE008230CE0062339
:102310000AE0052308E0042306E0032304E0022387
:1023200002E0012300E00023FA6902F003029200B8
:102330009340BA691343BB613549FB699B0802337B
:10234000BA6941F823203B4B1B68BB613B69DB4307
:10235000BA691340BB613B685B6803F48033002BB0
:1023600003D0BA693B691343BB61324ABB6913604E
:10237000304B5B68BB613B69DB43BA691340BB61AF
:102380003B685B6803F40033002B03D0BA693B69F8
:102390001343BB61274ABB695360264B9B68BB61F3
:1023A0003B69DB43BA691340BB613B685B6803F47C
:1023B0008013002B03D0BA693B691343BB611D4AEC
:1023C000BB6993601B4BDB68BB613B69DB43BA694C
:1023D0001340BB613B685B6803F40013002B03D020
:1023E000BA693B691343BB61124ABB69D360FB699D
:1023F0000133FB61FB690F2B7FF690AE00BF00BF7E
:102400002437BD465DF8047B704700BF00380240AA
:102410000038014000000240000402400008024071
:10242000000C02400010024000140240001802405C
:10243000001C0240003C014080B483B000AF7860D3
:102440000B467B8013467B707B78002B03D07A8809
:102450007B689A6103E07B881A047B689A6100BFFD
:102460000C37BD465DF8047B704780B485B000AF83
:1024700078600B467B807B685B69FB607A88FB68D1
:1024800013401A04FB68D9437B880B401A437B68CE
:102490009A6100BF1437BD465DF8047B70470000A9
:1024A00080B582B000AF0346FB80084B5A69FB88B9
:1024B0001340002B06D0054AFB885361FB88184661
:1024C000FEF760F900BF0837BD4680BD003C014003
:1024D00080B586B000AF78607B68002B01D1012306
:1024E00064E27B681B6803F00103002B75D0A34BEB
:1024F0009B6803F00C03042B0CD0A04B9B6803F0EB
:102500000C03082B12D19D4B5B6803F48003B3F5D9
:10251000800F0BD1994B1B6803F40033002B5BD069
:102520007B685B68002B57D101233FE27B685B68C7
:10253000B3F5803F06D1914B1B68904A43F480333A
:1025400013601DE07B685B68B3F5A02F0CD18B4B4B
:102550001B688A4A43F480231360884B1B68874AB0
:1025600043F4803313600BE0844B1B68834A23F4ED
:1025700080331360814B1B68804A23F480231360EF
:102580007B685B68002B13D0FEF716FE386108E00D
:10259000FEF712FE02463B69D31A642B01D90323CE
:1025A00004E2764B1B6803F40033002BF0D014E0F8
:1025B000FEF702FE386108E0FEF7FEFD02463B69C9
:1025C000D31A642B01D90323F0E16C4B1B6803F48D
:1025D0000033002BF0D100E000BF7B681B6803F0E4
:1025E0000203002B63D0654B9B6803F00C03002BA8
:1025F0000BD0624B9B6803F00C03082B1CD15F4B84
:102600005B6803F48003002B16D15C4B1B6803F05E
:102610000203002B05D07B68DB68012B01D001236E
:10262000C4E1564B1B6823F0F8027B681B69DB0092
:10263000524913430B603AE07B68DB68002B20D0E3
:102640004F4B01221A60FEF7B7FD386108E0FEF734
:10265000B3FD02463B69D31A022B01D90323A5E13E
:10266000464B1B6803F00203002BF0D0434B1B6862
:1026700023F0F8027B681B69DB00404913430B60C1
:1026800015E03F4B00221A60FEF796FD386108E026
:10269000FEF792FD02463B69D31A022B01D90323B0
:1026A00084E1364B1B6803F00203002BF0D17B68FA
:1026B0001B6803F00803002B30D07B685B69002B9C
:1026C00016D0304B01221A60FEF776FD386108E023
:1026D000FEF772FD02463B69D31A022B01D9032390
:1026E00064E1264B5B6F03F00203002BF0D015E092
:1026F000244B00221A60FEF75FFD386108E0FEF708
:102700005BFD02463B69D31A022B01D903234DE13D
:102710001A4B5B6F03F00203002BF0D17B681B6840
:1027200003F00403002B00F0A0800023FB75134B83
:102730001B6C03F08053002B0FD10023BB600F4BA9
:102740001B6C0E4A43F0805313640C4B1B6C03F05C
:102750008053BB60BB680123FB750B4B1B6803F404
:102760008073002B21D1084B1B68074A43F4807308
:102770001360FEF721FD386111E000BF0038024010
:1027800000004742800E474200700040FEF714FDF3
:1027900002463B69D31A022B01D9032306E1854B7C
:1027A0001B6803F48073002BF0D07B689B68012BBF
:1027B00006D1814B1B6F804A43F0010313671CE075
:1027C0007B689B68052B0CD17B4B1B6F7A4A43F0CF
:1027D00004031367784B1B6F774A43F001031367B9
:1027E0000BE0754B1B6F744A23F001031367724BA8
:1027F0001B6F714A23F0040313677B689B68002BEF
:1028000015D0FEF7D9FC38610AE0FEF7D5FC024688
:102810003B69D31A41F28832934201D90323C5E0C0
:10282000654B1B6F03F00203002BEED014E0FEF7A4
:10283000C3FC38610AE0FEF7BFFC02463B69D31ACD
:1028400041F28832934201D90323AFE05A4B1B6F08
:1028500003F00203002BEED1FB7D012B05D1564B7B
:102860001B6C554A23F0805313647B689B69002BD3
:1028700000F09B80504B9B6803F00C03082B5CD04E
:102880007B689B69022B41D14C4B00221A60FEF7FA
:1028900093FC386108E0FEF78FFC02463B69D31ACF
:1028A000022B01D9032381E0434B1B6803F0007323
:1028B000002BF0D17B68DA697B681B6A1A437B685E
:1028C0005B6A9B011A437B689B6A5B08013B1B04A4
:1028D0001A437B68DB6A1B06374913434B60374B4F
:1028E00001221A60FEF768FC386108E0FEF764FC1C
:1028F00002463B69D31A022B01D9032356E02E4B23
:102900001B6803F00073002BF0D04EE02B4B00222D
:102910001A60FEF751FC386108E0FEF74DFC0246F4
:102920003B69D31A022B01D903233FE0224B1B68DA
:1029300003F00073002BF0D137E07B689B69012B1B
:1029400001D1012332E01C4B5B68FB607B689B6913
:10295000012B28D0FB6803F480027B68DB699A4274
:1029600021D1FB6803F03F027B681B6A9A421AD1AF
:10297000FA6847F6C07313407A68526A920193422C
:1029800011D1FB6803F440327B689B6A5B08013B12
:102990001B049A4207D1FB6803F070627B68DB6A14
:1029A0001B069A4201D0012300E000231846183785
:1029B000BD4680BD007000400038024060004742C4
:1029C00080B584B000AF786039607B68002B01D19E
:1029D0000123CCE0684B1B6803F007033A689A4276
:1029E0000CD9654B3A68D2B21A70634B1B6803F07E
:1029F00007033A689A4201D00123B8E07B681B685C
:102A000003F00203002B20D07B681B6803F0040353
:102A1000002B05D0594B9B68584A43F4E053936010
:102A20007B681B6803F00803002B05D0534B9B68A1
:102A3000524A43F460439360504B9B6823F0F0028A
:102A40007B689B684D4913438B607B681B6803F070
:102A50000103002B44D07B685B68012B07D1474BF7
:102A60001B6803F40033002B19D101237FE07B683E
:102A70005B68022B03D07B685B68032B07D13F4B5D
:102A80001B6803F00073002B09D101236FE03B4B5F
:102A90001B6803F00203002B01D1012367E0374BD1
:102AA0009B6823F003027B685B68344913438B60A7
:102AB000FEF782FBF8600AE0FEF77EFB0246FB6849
:102AC000D31A41F28832934201D903234FE02B4BB2
:102AD0009B6803F00C027B685B689B009A42EBD119
:102AE000254B1B6803F007033A689A420CD2224B2D
:102AF0003A68D2B21A70204B1B6803F007033A6899
:102B00009A4201D0012332E07B681B6803F0040382
:102B1000002B08D0194B9B6823F4E0527B68DB68DC
:102B2000164913438B607B681B6803F00803002B76
:102B300009D0124B9B6823F460427B681B69DB0061
:102B40000E4913438B6000F021F802460B4B9B6843
:102B50001B0903F00F030A49CB5C22FA03F3094A6D
:102B60001360094B1B681846FEF7E2FA002318466B
:102B70001037BD4680BD00BF003C02400038024017
:102B8000D03D000804000020080000202DE9B043DB
:102B900084B000AF00237B600023FB6000233B6018
:102BA0000023BB60674B9B6803F00C03082B0DD020
:102BB000082B00F2BD80002B02D0042B03D0B7E01D
:102BC000614BBB60B7E0614BBB60B4E05D4B5B68E1
:102BD00003F03F037B605B4B5B6803F48003002BD7
:102BE0004DD0584B5B689B091A464FF0000340F2EA
:102BF000FF104FF0000102EA000803EA0109404615
:102C000049464FF000024FF000034B0143EAD06306
:102C1000420110461946B0EB080061EB09014FF084
:102C200000024FF000038B0143EA90638201121A05
:102C300063EB01034FF000004FF00001D90041EABF
:102C40005271D00002460B4612EB080243EB090317
:102C50004FF000004FF00001590241EAD2515002FA
:102C600002460B46104619467B681A464FF0000391
:102C7000FDF7FEFA02460B461346FB604AE0314B75
:102C80005B689B091A464FF0000340F2FF104FF0BB
:102C9000000102EA000403EA0105204629464FF03C
:102CA00000024FF000034B0143EAD063420110469B
:102CB0001946001B61EB05014FF000024FF00003C5
:102CC0008B0143EA90638201121A63EB01034FF018
:102CD00000004FF00001D90041EA5271D0000246D5
:102CE0000B46121945EB03034FF000004FF00001B3
:102CF000990241EA9251900202460B46104619464B
:102D00007B681A464FF00003FDF7B2FA02460B4605
:102D10001346FB600B4B5B681B0C03F00303013392
:102D20005B003B60FA683B68B2FBF3F3BB6002E018
:102D3000054BBB6000BFBB6818461037BD46BDE8F9
:102D4000B08300BF003802400024F40000127A0073
:102D5000014B1868704700BF1000002070B50D4D82
:102D60000D4C641BA4100026A64209D10B4D0C4C3F
:102D700001F022F8641BA4100026A64205D170BD04
:102D800055F8043B98470136EEE755F8043B984761
:102D90000136F2E7343F0008343F0008343F0008B2
:102DA000383F000802440346934200D1704703F8BD
:102DB000011BF9E7174B10B51C68A36BB3B91820BA
:102DC00000F068F8A06328B90246134B13484E215F
:102DD00000F030F8124A134BC0E90023124B836015
:102DE0000B23838101220023C0E90423A16B0F4838
:102DF0000A694B690E4C504304FB0300A2FB0434E8
:102E00005A1C044444F10000C1E9042020F00040B1
:102E100010BD00BF10000020E43D0008FB3D00088D
:102E20000E33CDAB34126DE6ECDE05002DF45158B7
:102E30002D7F954C1FB514461A46094B1B68054655
:102E4000D8684CB1074B0091CDE9013406492B46B7
:102E500000F00EF800F08EFC044B1C46F3E700BFB8
:102E6000100000205A3E0008673E0008953E00080A
:102E70000EB403B5014603AB054853F8042B0068B4
:102E8000019300F0E3F802B05DF804EB03B0704783
:102E900010000020024B0146186800F053B800BF34
:102EA0001000002037B5002948D051F8043C0190AB
:102EB000002BA1F10404B8BFE41800F081FE204A01
:102EC00001981368154633B96360146003B0BDE818
:102ED000304000F07BBEA3420BD9216862189342B8
:102EE00004BF1A685B68636004BF521822602C60DC
:102EF000ECE71A465B680BB1A342FAD91168551882
:102F0000A5420BD1246821445418A3421160DDD19D
:102F10001C685B68536021441160D7E702D90C2319
:102F20000360D3E7256861198B4204BF19685B68A9
:102F3000636004BF491921605460C7E703B030BD26
:102F40009C000020F8B5CD1C25F0030508350C2D9C
:102F500038BF0C25002D064601DBA94203D90C23FE
:102F600033600020F8BD00F02BFE21490A681446AA
:102F70009CB9204F3B6823B92146304600F02AFB1C
:102F800038602946304600F025FB431C23D10C2332
:102F90003360304600F01AFEE3E723685B1B17D46A
:102FA0000B2B03D923601C44256004E06368A24214
:102FB0000CBF0B605360304600F008FE04F10B00BC
:102FC000231D20F00700C21ACCD01B1AA350C9E75A
:102FD00022466468CCE7C41C24F00304A042E3D07A
:102FE000211A304600F0F6FA0130DDD1CFE700BFFC
:102FF0009C000020A00000209368013B002B10B42F
:10300000936008DA9469A34201DB0A2903D15DF8D1
:10301000044B00F0EFBA1368581C10601970084692
:103020005DF8044B7047F8B506460F461446D518B0
:10303000AC4201D1002007E014F8011B3A463046AB
:10304000FFF7DAFF431CF3D1F8BD00002DE9F04F84
:103050000D469DB014469846064618B183690BB9D3
:1030600000F0AAFC894B9D421BD175686B6ED90795
:1030700005D4AB899A0502D4A86D00F03BFDAB895D
:103080001B0701D52B69EBB92946304600F004FB3C
:10309000C0B16B6EDC070ED54FF0FF301DB0BDE840
:1030A000F08F7B4B9D4201D1B568DFE7794B9D42A4
:1030B00008BFF568DAE7AB899805EDD4A86D00F094
:1030C0001AFDE9E70023099320238DF82930CDF874
:1030D0000C803023DFF8C0818DF82A304FF00109D1
:1030E00023469A4613F8012B0AB1252AF9D1BAEBE7
:1030F000040B0BD05B46224629463046FFF793FF70
:10310000013000F0AA80099A5A4409929AF80030D6
:10311000002B00F0A28000234FF0FF32CDE9052301
:103120000AF1010A049307938DF853301A93544619
:10313000052214F8011B5848FDF74AF8049AD8B93B
:10314000D10644BF20238DF85330130744BF2B23EF
:103150008DF853309AF800302A2B15D0079A544630
:1031600000204FF00A0C214611F8013B303B092B9F
:103170004ED9B0B1079214E0A0EB080309FA03F3AB
:1031800013430493A246D2E7039B191D1B680391C6
:10319000002BBBBF5B4242F0020207930793B8BF0C
:1031A000049223782E2B0CD163782A2B35D1039BE4
:1031B0001A1D1B680392002BB8BF4FF0FF33023477
:1031C0000593DFF8E4A0217803225046FDF700F8CC
:1031D00040B14023A0EB0A0003FA00F0049B034334
:1031E0000134049314F8011B2C488DF82810062292
:1031F000FCF7EEFF00283FD0294B1BBB039B073396
:1032000023F0070308330393099B3B44099367E7C3
:103210000CFB02320C460120A5E700230134059384
:1032200019464FF00A0C204610F8012B303A092AB3
:1032300003D9002BC5D00591C3E70CFB012104463F
:103240000123F0E703AB00932A46164B04A930464E
:10325000AFF300800746781CD6D16B6ED90705D432
:10326000AB899A0502D4A86D00F045FCAB895B06DA
:103270003FF512AF099811E703AB00932A46094BBB
:1032800004A9304600F080F8E4E700BFEC3E0008F7
:103290000C3F0008CC3E0008963E0008A03E000807
:1032A00000000000273000089C3E00082DE9F04790
:1032B000164699468A680B69DDF820809342B8BFAC
:1032C0001346336091F8432007460C460AB1013398
:1032D00033602368990642BF336802333360256840
:1032E00015F0060506D104F1190AE36832689B1A45
:1032F000AB4226DC94F84320131E226818BF01233A
:1033000092062BD404F1430249463846C0470130A7
:103310001ED02368E568326803F00603042B08BF5B
:10332000AD1AA36822690CBF25EAE5750025934212
:10333000C4BF9B1AED1800261A34B5421AD10020DA
:1033400008E00123524649463846C047013003D1C0
:103350004FF0FF30BDE8F0870135C6E7E1185A1C91
:10336000302081F84300224494F8451082F843103D
:103370000233C7E70123224649463846C047013099
:10338000E6D00136D9E700002DE9FF470C4691460B
:10339000277E0C99782F80469A4604F1430207D87D
:1033A000622F0AD8002F00F0D880582F00F0A38099
:1033B00004F1420684F842703AE0A7F16303152B4A
:1033C000F6D801A050F823F0213400083534000865
:1033D000B1330008B1330008B1330008B13300083D
:1033E00035340008B1330008B1330008B1330008A8
:1033F000B133000841350008653400082335000862
:10340000B1330008B133000863350008B133000858
:1034100065340008B1330008B13300082B350008CB
:103420000B681A1D1B680A6004F1420684F84230DA
:103430000123A3E0256808682E0600F104030AD5DD
:1034400005680B60002D03DA2D236D4284F84330AC
:103450005E480A2319E015F0400F05680B6018BF9D
:103460002DB2EFE70B682568181D0860280601D506
:103470001D6802E06906FBD51D8854486F2F0CBFFC
:1034800008230A23002184F843106668A660002EF2
:10349000A2BF216821F0040121600DB9002E4DD09A
:1034A0001646B5FBF3F103FB1157C75D06F8017D26
:1034B0002F46BB420D46F4D9082B0BD12368DF07FA
:1034C00008D5236961689942DEBF302306F8013CC4
:1034D00006F1FF36921B2261CDF800A04B4603AAED
:1034E00021464046FFF7E2FE01304CD14FF0FF305D
:1034F00004B0BDE8F087354884F8457023680E684D
:103500001F0656F8045B0E6014D5D90744BF43F07C
:10351000200323601DB9236823F0200323601023B8
:10352000B0E7236843F0200323607823284884F819
:103530004530E3E75E0648BFADB2E6E71646BBE7B7
:103540000B68266860691D1D0D6035061B6801D576
:10355000186002E07106FBD518800023236116462F
:10356000BAE70B681A1D0A601E68626800213046BF
:10357000FCF72EFE08B1801B6060636823610023A6
:1035800084F84330A8E72369324649464046D0478D
:103590000130ABD023689B0713D4E068039B9842AB
:1035A000B8BF1846A4E70123324649464046D047F3
:1035B00001309BD00135E36803995B1AAB42F2DC22
:1035C000EBE7002504F11906F5E700BFA73E000868
:1035D000B83E000838B5064D0023044608462B6067
:1035E000FDF712FD431C02D12B6803B1236038BDE7
:1035F00050010020F8B50E461446054618B18369FF
:103600000BB900F0D9F9214B9C422BD16C68A3690E
:10361000A360A3891A072FD523696BB32369206898
:10362000C01A6369F6B28342374604DC2146284655
:1036300000F02EF930BBA368013BA36023685A1C3D
:1036400022601E7063690130834204D0A389DB07C6
:1036500006D50A2E04D12146284600F019F988B96A
:103660003846F8BD0A4B9C4201D1AC68CFE7094B04
:103670009C4208BFEC68CAE72146284600F00CF8D7
:103680000028CBD04FF0FF37EAE700BFEC3E000840
:103690000C3F0008CC3E0008324B70B51D68064652
:1036A0000C4625B1AB6913B9284600F085F92E4BBD
:1036B0009C420FD16C68A389B4F90C2019072CD453
:1036C000DD0611D40923336042F04003A3814FF09B
:1036D000FF303EE0254B9C4201D1AC68EBE7244B28
:1036E0009C4208BFEC68E6E7580712D5616B41B110
:1036F00004F14403994202D03046FFF7D3FB002384
:103700006363A38923F02403A381002363602369F7
:103710002360A38943F00803A38123694BB9A389DC
:1037200003F42073B3F5007F03D02146304600F048
:1037300007FAA089B4F90C2010F001030AD0002385
:10374000A36063695B42A361236943B910F0800001
:10375000BAD170BD810758BF6369A360F4E7002048
:10376000F7E700BF10000020EC3E00080C3F000807
:10377000CC3E000808B5062000F056FA0120FDF7FF
:10378000CBFB00008A892DE9F041054610070C4665
:1037900058D44B68002B05DC0B6C002B02DC00209E
:1037A000BDE8F081E66A002EF9D0002312F48052C1
:1037B0002F682B6032D0606DA3895A0705D56368E6
:1037C000C01A636B0BB1236CC01A00230246E66A71
:1037D000216A2846B047431CA38906D129681D29C0
:1037E0002CD82A4ACA40D60728D500226260D904BC
:1037F0002269226004D5421C01D12B6803B960659F
:10380000616B2F600029CAD004F14403994202D0B1
:103810002846FFF747FB00206063C1E7216A0123C8
:103820002846B047411CC7D12B68002BC4D01D2BA4
:1038300001D0162B01D12F60B1E7A38943F04003DB
:10384000A381ADE70F69002FA9D093070E6808BFC9
:103850004B690F6018BF0023A6EB07088B60B8F117
:10386000000F9CDD216AA66A43463A462846B047C7
:10387000002806DCA38943F04003A3814FF0FF300A
:103880008EE70744A8EB0008E9E700BF01004020ED
:1038900038B50B6905460C4613B90025284638BDD6
:1038A00018B183690BB900F087F8144B9C421BD107
:1038B0006C68B4F90C30002BEFD0626ED00704D4E2
:1038C000990502D4A06D00F015F928462146FFF7AE
:1038D00059FF636EDA070546E0D4A3899B05DDD462
:1038E000A06D00F008F9D9E7054B9C4201D1AC6806
:1038F000DFE7044B9C4208BFEC68DAE7EC3E0008C7
:103900000C3F0008CC3E0008002310B50446C0E977
:103910000033C0E90433836081814366C2818361DF
:10392000194608225C30FFF73DFA054B6362054BF0
:10393000A362054BE362054B2462236310BD00BF05
:10394000613C0008833C0008BB3C0008DF3C0008E9
:10395000014900F0AFB800BF9138000870B54A1EA9
:10396000682555430E4605F17401FFF7EBFA04464E
:1039700040B10021C0E900160C30A06005F16802DA
:10398000FFF710FA204670BD014800F0B3B800BF41
:103990004C010020014800F0AEB800BF4C010020EF
:1039A000014800F0A7B800BF47010020014800F01F
:1039B000A2B800BF4701002010B50446FFF7F0FF92
:1039C000A3691BB1BDE81040FFF7F0BFC4E9123393
:1039D0002365134B134A1B68A262A34204BF012351
:1039E000A361204600F020F86060204600F01CF83B
:1039F000A060204600F018F80022E0600421606812
:103A0000FFF782FFA06801220921FFF77DFFE06830
:103A100002221221FFF778FF0123A361D2E700BF42
:103A2000E03D000851390008F8B50746FFF7ACFF44
:103A30001E4B1E68B36913B93046FFF7BDFF483609
:103A4000D6E90134013B03D533680BB33668F7E799
:103A5000B4F90C50D5B9164BE36004F15800656613
:103A600000F047F8FFF796FFC4E90155C4E9045593
:103A70002560A5610822294604F15C00FFF792F950
:103A8000C4E90D55C4E912552046F8BD6834D9E79C
:103A900004213846FFF762FF044630600028D5D184
:103AA000FFF778FF0C233B60EEE700BFE03D000826
:103AB0000100FFFF2DE9F8430646884600F148045F
:103AC0000027D4E90195B9F1010905D52468002C36
:103AD000F7D13846BDE8F883AB89012B07D9B5F992
:103AE0000E30013303D029463046C04707436835BE
:103AF000E9E770477047704770B50E46B1F90E1090
:103B0000002996B014461D4607DA00232B60B389BE
:103B10001A0610D44FF480630EE06A4600F006F9EE
:103B20000028F2DB019A02F47042A2F500535A42D7
:103B30005A412A60EEE740230020236016B070BD92
:103B40008B8973B59D0706460C4607D504F14703DC
:103B5000236023610123636102B070BD01AB6A463B
:103B6000FFF7CAFF009905463046FFF7EBF948B961
:103B7000B4F90C309A05EFD423F0030343F00203A9
:103B8000A381E3E70D4BB362A389206043F0800378
:103B9000A381009B6361019B20615BB1B4F90E10AE
:103BA000304600F0D5F828B1A38923F0030343F091
:103BB0000103A381A0890543A581CDE75139000800
:103BC0000148FFF797BF00BF480100200148FFF7F9
:103BD00092BF00BF480100201F2938B504460D469A
:103BE00004D9162303604FF0FF3038BD426C12B188
:103BF00052F821304BB9204600F030F82A460146F1
:103C00002046BDE8384000F017B8012B0AD0591CF7
:103C100003D1162303600120E7E7002442F8254082
:103C2000284698470020E0E7024B01461868FFF756
:103C3000D3BF00BF1000002038B5074D0023044655
:103C4000084611462B60FDF757F9431C02D12B683B
:103C500003B1236038BD00BF50010020FDF744B917
:103C600010B50C46B1F90E1000F094F80028ABBF67
:103C7000636DA3891B1823F48053ACBF6365A381D4
:103C800010BD2DE9F0411F468B89DB0505460C462A
:103C9000164605D5B1F90E100223002200F068F88F
:103CA000A389B4F90E1023F48053A38132463B4616
:103CB0002846BDE8F04100F017B810B50C46B1F940
:103CC0000E1000F055F8431CA38915BF606523F45E
:103CD000805343F48053A38118BFA38110BDB1F971
:103CE0000E1000F013B8000038B5074D0446084622
:103CF000114600222A601A46FDF735F9431C02D10D
:103D00002B6803B1236038BD5001002038B5064D43
:103D10000023044608462B60FDF741F9431C02D1FD
:103D20002B6803B1236038BD5001002038B5074D22
:103D300000230446084611462B60FDF73CF9431C5E
:103D400002D12B6803B1236038BD00BF50010020B1
:103D500038B5064D0023044608462B60FDF73BF9B5
:103D6000431C02D12B6803B1236038BD50010020F1
:103D700038B5074D04460846114600222A601A4607
:103D8000FDF734F9431C02D12B6803B1236038BD21
:103D90005001002038B5074D044608461146002260
:103DA0002A601A46FDF7C2F8431C02D12B6803B102
:103DB000236038BD50010020F8B500BFF8BC08BC36
:103DC0009E467047F8B500BFF8BC08BC9E467047D9
:103DD00000000000000000000102030406070809BB
:103DE000140000205245454E54206D616C6C6F6389
:103DF00020737563636565646564002F6275696C23
:103E0000642F676E752D746F6F6C732D666F722DD6
:103E100073746D33325F392D323032302D71322D63
:103E20007570646174652E32303230313030312D2E
:103E3000313632312F7372632F6E65776C69622F62
:103E40006E65776C69622F6C6962632F7374646C42
:103E500069622F72616E642E63002C2066756E633A
:103E600074696F6E3A2000617373657274696F6E66
:103E70002022257322206661696C65643A20666998
:103E80006C6520222573222C206C696E65202564C8
:103E9000257325730A00232D302B2000686C4C00FD
:103EA000656667454647003031323334353637383A
:103EB0003941424344454600303132333435363798
:103EC000383961626364656600000000000000002C
:103ED00000000000000000000000000000000000E2
:103EE00000000000000000000000000000000000D2
:103EF00000000000000000000000000000000000C2
:103F000000000000000000000000000000000000B1
:103F100000000000000000000000000000000000A1
:0C3F200000000000000000000000000095
:083F2C0074C3FF7F01000000D7
:043F3400B5010008CB
:043F380091010008EB
:103F3C00010000000024F40010000000010000004B
:103F4C001400002000000000EC3E00080C3F0008AC
:103F5C00CC3E000800000000000000000000000043
:103F6C000000000000000000000000000000000045
:103F7C000000000000000000000000000000000035
:103F8C000000000000000000000000000000000025
:103F9C000000000000000000000000000000000015
:043FAC000000000011
:040000050800109946
:00000001FF
